:100000000C9433100C9462100C9462100C946210D7
:100010000C9462100C9462100C9462100C94621098
:100020000C9462100C9462100C946B140C943D6D43
:100030000C94DB6F0C946E6D0C9462100C94CE14C7
:100040000C9459140C9462100C9462100C9462106D
:100050000C9462100C9462100C9462100C94621058
:100060000C9462700C9417150C94D76D0C94A670B8
:100070000C9462100C9462100C9462100C94621038
:100080000C9462100C9462100C946210B816BC169A
:1000900064166A168C168C168C16AF16B416B81623
:1000A000BC16CB16CB16C01670165E176217261735
:1000B0002C1732173217321756175A175E17621756
:1000C0006F176F176617E723E723E723E723142447
:1000D0000B240B240B240B240B240B240B24F723BD
:1000E000FC23FC23613270321B33AE343535B73319
:1000F0008B37A4377B36B135B9350F36F443B4436B
:10010000BF43CE43D443D843DD43194B284B394B2F
:100110004F4B564B5D4B684B7F4B974B8F4CBA4CBC
:10012000C34CCC4CD84CF94C094D334D804D8C4DC3
:10013000CA4DED4D044E104E1C4E284EB2519D5CE2
:100140002A54B859B3549D5C9D5C82571F5B9D5CDB
:100150009D5C6253C251B855756964695769666997
:100160006A696E695A6972697E69D271D471D77190
:10017000DC71ED71FC710A7214722472347239727E
:100180004F725272567258725A725F7263726E7206
:1001900072727A728172857287728B728D728F72AF
:1001A0009172957299729E72A372A872AD72B272B8
:1001B000204F6C642056657273696F6E2045455000
:1001C000524F4D202020434845434B205345545423
:1001D000494E47532F43414C494200416C61726D77
:1001E000732044697361626C656400454550524FE9
:1001F0004D206C6F77206D656D004C4F4144494E2A
:1002000047006D537461636B206F666C6F77006D90
:10021000537461636B2075666C6F77004D45535363
:1002200041474500707265737320616E79204B659C
:100230007900537769746368205761726E696E67DD
:1002400000506C6561736520526573657420537747
:10025000697463686573005468726F74746C6520A8
:100260006E6F742069646C650052657365742074E8
:1002700068726F74746C6500507265737320616E80
:1002800079206B657920746F20736B6970004F461D
:10029000464F4E20544873544825002D2D2D0043C1
:1002A00048002D2D2D20002D2D2D2D00000064281F
:1002B0001007030100000000010101020202020117
:1002C00001030020414C455254000001020300028A
:1002D000010303010200030201000452756420457A
:1002E0006C65205468722041696C20004F4E2000DC
:1002F0004F46460003544852525544454C454944E4
:100300003049443149443241494C47454154524EA9
:100310004C31204C32204C33204C34204C35204C76
:1003200036204C37204C38204C39204C41204C4250
:10033000204C43204C44204C45204C46204C472028
:100340004C48204C4920001B1E272D36394B4E634C
:100350006C7278878D939CB1B4C6C9D2D8E1E4534E
:10036000706C6173680080400000000000000000B5
:10037000000000000000000000000000000000007D
:10038000000000000000000000000000000000006D
:10039000000000000000000000000000000000005D
:1003A000000000000000000000000000000000004D
:1003B00000000080C0E0E0F0F8F8FCFCFCF8F8F881
:1003C000F04000000000008080800000000000007D
:1003D0000000000000000000000000000080C0C01D
:1003E000E0E0E0F0F0F0E0C00000000000C0F8FF46
:1003F000FF9F878383838383838383838383838331
:10040000838383838383838383038380838383833F
:1004100083838383838383838383838383838383AC
:10042000838383C3E3733F1F0000000080E0F0F884
:10043000FCFEFFFFFFFF7F3F1F1F0F0783C3E1E1AC
:10044000E0E0C0000E1F3F7F7FFFF3E0E080000090
:10045000000000000000000080F0FCFEFFFFFFFF36
:100460007F3F0F0301010100000080F0FEFFFFC786
:10047000C1C1C1C1C1C1C1C1C1C1C1C1C1C1C1C16C
:10048000C1C1C1C1C1C101C1F0FEFF3F0F070F0DC6
:100490000D0D1D191919193131313171616161E188
:1004A000C1C1C18100000080E0F8FCFFFFFFFF2F09
:1004B000170F038180C0E0F0F8FCFEFFFFFFFFFF95
:1004C000FF7F010000000000000001010307070E8C
:1004D0001E1C3870E0F0F8FEFFFF7F1F0F030001C5
:1004E000000000000000000000000000000000000C
:1004F00000000000000000000000000000000000FC
:1005000000000000000000000000000000000000EB
:1005100000000000000000000000000000000000DB
:100520000000000000007EFFFFFFFFFFFFFBF8FC64
:10053000FCFEFF7F3F1F0F07C3FFFFFFFFFFFF7F93
:10054000070000000000000000000000000000C0E4
:10055000E0F8FEFFFF7F1F0F1F3D7CF8F8F0E08002
:10056000000000000000000000000000000000008B
:10057000000000000000000000000000000000007B
:10058000000000000000000000000000000000006B
:10059000000000000000000000000000000000005B
:1005A0000000000000000000010101010103070735
:1005B000070301000000E0FCFFFFFFFFFF1F030037
:1005C00000000000000000000000C0F078DE2713EB
:1005D000090E0703000000000000000001030F7F68
:1005E000FFFC7878F8000000000000000000000028
:1005F000808080808080808080008080008080007B
:1006000000000000000080808080808080808080EA
:1006100080808080808080800000000000000000DA
:1006200000000000000000000000000000000000CA
:1006300000000080F0FEFFFFFFFF3F0F0100000001
:100640000000000000C0E0381E0F030001000000A1
:10065000000000000000000000000000000000009A
:100660000000000303010000000000000000000083
:100670000E0E02020202020303000F0F000F0F080A
:100680000808080808080F0F08080808080F0F00D6
:100690000000000F0F00000000000000000000003C
:1006A000000000000000000000000000000000004A
:1006B00000C0F8BFFFFFFF1F7F0100000000000027
:1006C0000000F0FCFF7F7830000000000000000018
:1006D000000000000000000000000000000000001A
:1006E000000000000000000000000000000000000A
:1006F00000000000000000000000000000000000FA
:1007000000000000000000000000000000000000E9
:1007100000000000000000000000000000000000D9
:100720000000000000000000000000000000003099
:100730001C070E0F07010000000000000000000071
:1007400000000000000000000000000000000000A9
:100750000000000000000000000000000000000099
:10076000000000000000000000564552533A205699
:10077000312E323436392D77696C6C1F4441544523
:100780003A2032362E30342E323031351F54494D16
:10079000453A2030303A30303A33301F2053564EED
:1007A0003A20657239782D72311F204D4F443A201E
:1007B000202020313238202000064F4E20202020DB
:1007C0004F4646202020424F544820203135536563
:1007D00063733330536563733630536563735661A7
:1007E0007269626C005653000720382053656373AA
:1007F00031322053656373313620536563730001D2
:1008000053415658004E756D62657220566F69638C
:100810006520537700536166657479205377697456
:100820006368657300434F5059205452494D205B13
:100830004D454E555D000D4F6E000D4F6E004C4FF7
:10084000474943414C205357495443484553000AB4
:10085000436F756E7420446F776E436F756E7420AE
:10086000557020200054696D65721F547269676766
:100870006572411F54726967676572421F54696DE2
:1008800065721F52657365742053776974636800DD
:1008900003416D654A617045757200034431364409
:1008A00038204C52500020547970651F20436F75DA
:1008B0006E7472791F42696E641F52616E676500C3
:1008C000094C50342F4C5035202044534D326F6E1C
:1008D0006C792044534D322F44534D580044534DAE
:1008E00020547970650003504F534E4547005368BC
:1008F0006966742053656C0050504D2046724C65FB
:100900006E0D6D536563000B52784E756D000434A7
:10091000434820364348203843482031304348314B
:10092000324348313443483136434800137553004D
:100930000650504D20202050585820202044534D20
:1009400032202050504D31362050504D53494D00EB
:10095000317374204368616E1F50726F746F0002B0
:100960004578706F1F1F015765696768741F1F44C2
:10097000725377311F447253773200070444522078
:10098000486920044452204D6964044452204C6F4D
:100990007700042D2D2D2D31323020313230583159
:1009A0003430203930202000537761736820547927
:1009B00070651F436F6C6C6563746976651F537750
:1009C0006173682052696E671F454C452044697207
:1009D000656374696F6E1F41494C20446972656399
:1009E00074696F6E1F434F4C20446972656374696C
:1009F0006F6E0052455441313233005472696D209C
:100A000053771F48692E52657320536C6F772F44BC
:100A1000656C61791F4265657020436E7400064500
:100A20007870202020457846696E6546696E65209D
:100A3000204D656469756D436F6172736500032DA8
:100A40002D2D5031205032205033204756344756F8
:100A50003547563647563700566F6C756D652043DF
:100A60006F6E74726F6C1F452E204C696D697473C4
:100A70001F547261696E65721F542D5472696D1F27
:100A8000542D4578706F1F5472696D20496E630054
:100A9000052D313030252020203025004465666149
:100AA000756C742053771F437573746F6D53746B3B
:100AB0004E616D65731F4175746F204C696D69746B
:100AC000731F5468726F74746C6520446566617539
:100AD0006C7400566F69636520496E646578114DCA
:100AE000454E55009A113D13481335132F13281303
:100AF0008F111D13121389118614E3110913564126
:100B000000566F69636520416C61726D73004D45DD
:100B10004E55204C4F4E470044656C657465005639
:100B20006F6963652046696C6500062D2D2D2D2D9E
:100B30002D4E756D62657220417564696F000450B9
:100B40006C61794D75746500064E6F20202020423F
:100B500065666F726541667465722000072D2D2DE4
:100B60002D2D2D2D48617074696331486170746951
:100B7000633248617074696333000776603D766163
:100B80006C20763D76616C20200007280D290050EE
:100B90006C617920536F757263651F4F6E206E6FA5
:100BA0002054656C656D657472791F46696C655477
:100BB00079706500536F757263651F46756E637457
:100BC000696F6E1F56616C75651F53776974636832
:100BD0001F526174651F48617074696300566F69C4
:100BE000636520416C61726D00034D4F5645205383
:100BF0005449434B532F504F5453000553455420F1
:100C00004D4944504F494E5400035B4D454E555D90
:100C100020544F2053544152540042616E64476146
:100C2000700043616C004D756C7469706C6965721D
:100C300000036F6666202B3D203A3D00036D6F6414
:100C4000650A2520737263202073770007536C6157
:100C500076650012424700414E41005472696D2D85
:100C6000202B00204C6566741F52696768741F034F
:100C700055701F20446F776E1F20457869741F20C0
:100C80004D656E75004449414700537469636B5369
:100C900063726F6C6C00506F745363726F6C6C0096
:100CA00053706C617368204E616D650053706C61A8
:100CB00073682073637265656E00416C61726D20AC
:100CC0005761726E696E67004D656D6F727920575E
:100CD00061726E696E67005468726F74746C65201F
:100CE0005761726E696E6700426174746572792033
:100CF0007761726E696E671F496E616374697669A8
:100D0000747920616C61726D136D00014368616ECE
:100D10006E656C204F726465721F4D6F646500458F
:100D20006E61626C652050504D53494D005468729D
:100D30006F74746C652072657665727365004372BA
:100D40006F73735472696D00204861707469632019
:100D5000537472656E677468000A426565706572E7
:100D600020202020506953706B7220202020426583
:100D7000657072566F696365506953706B566F6921
:100D800063654D656761536F756E6420000651752C
:100D9000696574204E6F4B6579207853686F727463
:100DA00053686F7274204E6F726D20204C6F6E67A7
:100DB0002020784C6F6E672000566F6C756D651F34
:100DC0004265657065721F536F756E64204D6F6468
:100DD000651F20537065616B65722050697463688C
:100DE00000466C617368206F6E206265657000421A
:100DF00061636B6C6967687420696E7665727400F4
:100E00004C69676874207377697463681F1F4C6945
:100E1000676874206F666620616674657213731F5D
:100E20004C69676874206F6E2053746B204D761385
:100E30007300436F6E747261737400FB11B211D34F
:100E400011E311CA11DA11BE11F311EB11A811A0AF
:100E50001122047C5E54546D000345787045784639
:100E6000466E654D65644372730011544F541F0103
:100E7000544D45115453571F0153544B115354258E
:100E800000035B4D454E555D20746F2072656672A0
:100E900065736800746D72314C6174206D617812F5
:100EA00075731F746D72314C6174206D696E1275AB
:100EB000731F746D7231204A697474657212757390
:100EC0001F746D61696E126D7300535441540009B3
:100ED00066726565004D4F44454C53454C002046B5
:100EE0004D300A524554410020464D0053776974F5
:100EF00063681F5472696D731F4661646520496E93
:100F00001F46616465204F757400000300464C2045
:100F10004D4F444500004641494C5341464500521F
:100F2000414E474520434845434B20525353493A8D
:100F3000000642494E44494E47004475706C69634F
:100F40006174696E67206D6F64656C0044454C4543
:100F50005445204D4F44454C004455504C49434165
:100F60005445204D4F44454C0054656D706C617480
:100F70006573104D454E5500012B2A52004D4958BE
:100F8000455200202020202020202020202020202A
:100F9000200044454C455445204D49583F000359D5
:100FA00045530B4E4F1F035B4D454E555D0B5B4547
:100FB0005849545D004D6178206D697865727320E1
:100FC00072656163683A2033321F1F507265737314
:100FD000205B455849545D20746F2061626F7274C4
:100FE000000841646420202020204D756C746970D5
:100FF0006C795265706C616365200043757276652B
:1010000000084469666600114578706F00015573E9
:1010100065204F75747075742020200001536F7522
:101020007263651F015765696768741F014F6666C3
:101030007365741F01466978204F66667365741F77
:1010400001456E61626C654578706F44521F0154B2
:1010500072696D1F1F1F015377697463681F014D0B
:101060004F4445531F015761726E696E671F014DF2
:10107000756C7470781F0144656C617920446F77DA
:101080006E1F0144656C61792055701F01536C6FB0
:10109000772020446F776E1F01536C6F77202055A7
:1010A000701F535743482053776974636800454461
:1010B0004954204D495820004F5000434C4541525F
:1010C000204D49584553205B4D454E555D005445D4
:1010D0004D504C41544553005343092B0D2A122FB8
:1010E00000032D2D2D52746D45746D54746D417433
:1010F0006D52454E527564456C6554687241696C19
:1011000050312050322050332000020202020202ED
:1011100002000546697273744C6173742000536F4A
:10112000757263651F1F4F66667365741F4D756C1E
:101130007469706C6965721F44697669736F721F98
:10114000556E69741F5369676E1F446563696D61ED
:101150006C731F4F666673657420417400534300BF
:101160005B4D6F72655D00435600505245534554C8
:1011700000435552564500032D2D2D494E56004E25
:10118000616D65005357522000566F696365004CCE
:101190002E5377697463686573004D6978657200D2
:1011A00044696167416E61004469616753777463A4
:1011B0006800417564696F486170746963004361D8
:1011C0006C6962726174696F6E00436F6E74726FE6
:1011D0006C7300416C61726D730048617264776179
:1011E00072650047656E6572616C00566572736961
:1011F0006F6E00547261696E657200446973706C41
:101200006179005B4D454E555D205748454E204461
:101210004F4E4500454449540053454C4543540006
:1012200053454C2F4544495400434F5059004D4FAE
:1012300056450044454C45544500454449540049F1
:101240004E5345525400434F5059004D4F564500A0
:1012500044454C45544500047349447873544852FE
:101260007352554473454C457341494C734745414E
:101270007354524E0012081200081C0808081C087B
:101280000000082200490022080000000000227F20
:101290002200000008220049002208000008220065
:1012A00049002208000000227F2200000000000800
:1012B0002200490022080000081C0808081C080039
:1012C000475600054665657420566F6C7473446517
:1012D000675F434465675F466D41682020416D70DC
:1012E00073204D657472655761747473004656437C
:1012F000466D416D5718242F2F0033383B000203F1
:1013000004060901524554410050726F746F636FB7
:101310006C00476C6F62616C56617273005361665A
:101320006574792053777300437572766573004D49
:101330006F646573004578706F2F44720048656C68
:1013400069205365747570004C696D697473004D44
:101350006F64656C2053656C656374004D6F6465E4
:101360006C205365747570004C617374204D656E0C
:101370007500526164696F20536574757000537411
:101380006174697374696373004265657020636F8B
:10139000756E74646F776E004D696E75746520624A
:1013A000656570000420204F4E204F4646424F5442
:1013B0004800072D2D2D2D202020763E76616C20B3
:1013C00020763C76616C20207C767C3E76616C7C5D
:1013D000767C3C76616C414E44202020204F522088
:1013E00020202020584F522020202076313D3D766D
:1013F00032207631213D76322076313E7632202001
:1014000076313C763220204C617463682020462D72
:10141000466C6F702054696D654F66667631603D2D
:1014200076616C00065761726E31205761726E32C0
:101430002043686561702052696E6720205363699C
:10144000466920526F626F7420436869727020543D
:101450006164612020437269636B74536972656EC5
:1014600020416C6D436C6B526174617461546963AB
:101470006B20204861707463314861707463324836
:1014800061707463330054696D6572005452453065
:101490003132414700204142434445464748494A8A
:1014A0004B4C4D4E4F505152535455565758595A14
:1014B0006162636465666768696A6B6C6D6E6F70A4
:1014C0007172737475767778797A30313233343556
:1014D000363738395F2D2E00FEFFFDF6F7F8F9FAA2
:1014E000FBFC042D2D2D2D54494D3154494D3242D4
:1014F0004154544776723147767232477672334799
:101500007672344776723547767236477672370090
:10151000032D2D2D783E30783C307C787C663E3033
:10152000663C307C667C6331206332206333206309
:1015300034206335206336206337206338206339D5
:10154000206331306331316331326331336331349D
:101550006331356331360004503120205032202071
:101560005033202048414C4646554C4C435943315A
:10157000435943324359433350504D3150504D320B
:1015800050504D3350504D3450504D3550504D36D5
:1015900050504D3750504D38434831204348322049
:1015A00043483320434834204348352043483620BD
:1015B0004348372043483820434839204348313096
:1015C0004348313143483132434831334348313461
:1015D0004348313543483136535743484756312005
:1015E0004756322047563320475634204756352039
:1015F0004756362047563720544849530053776999
:10160000746368205761726E696E670067656E77F4
:1016100072697465206572726F7200454550524F51
:101620004D20466F726D617474696E67004261642B
:1016300020454570726F6D204461746100434845D8
:10164000434B204D4F44454C2054494D4552530087
:10165000434845434B204D49582F445220534F5542
:1016600052434553004D4F44454C2020202020003C
:101670004D45202020202020202000454550524F5D
:101680004D206F766572666C6F7700E2AEA6A4A2FD
:101690002F250000000000000000000000000000F6
:1016A000000000000000000000000000000000003A
:1016B0000000333B1F0F00000000C0C0C0C0C0C00E
:1016C000C0C0C0C00000000000000000000000001A
:1016D00000000000000000000000183C3C18000062
:1016E000000000000080C0E070381C0C0C0E0703E6
:1016F0000100000000000000FCFE87C3E377FEFC51
:1017000000000F1F3B3130381F0F00000C0EFFFF91
:1017100000000000000030303F3F3030000000008B
:101720000C0E0783C3E77E3C00003C3E373331306C
:10173000303000000303C3C3C3E7FE3C0000303079
:10174000303030391F0F0000C0E070381C0EFFFF32
:1017500000000303030303033F3F00003F3F333315
:101760003373E3C300000C1C383030381F0F000007
:10177000FCFEC7C3C3C78E0C00000F1F38303039C2
:101780001F0F00000303C3E3733B1F0F00000000A3
:101790003F3F0000000000003CFEE7C3C3E7FE3C03
:1017A00000000F1F393030391F0F00003C7EE7C3A7
:1017B000C3E7FEFC0000000030381C0E07030000E9
:1017C000183C3C18000000000000060F0F06000047
:1017D0000000F0F8DCCEC7C7CEDCF8F03F3F0000D9
:1017E000000000003F3FFFFFC3C3C3C3C3E7FE3C8D
:1017F0003F3F3030303030391F0FFCFE070303030A
:1018000003070E0C0F1F3830303030381C0CFFFF30
:10181000030303070E1CF8F03F3F303030381C0E36
:101820000703FFFFC3C3C3C3C3C303033F3F30303A
:10183000303030303030FFFFC3C3C3C3C3C30303F2
:101840003F3F0000000000000000FCFE0703C3C390
:10185000C3C7CECC0F1F3830303030303F3FFFFF92
:10186000C0C0C0C0C0C0FFFF3F3F0000000000007C
:101870003F3F00000303FFFF030300000000303080
:101880003F3F30300000000000000303FFFF030370
:101890000C1C383030381F0F0000FFFFC0E0F0385C
:1018A0001C0E07033F3F000103070E1C3830FFFFEB
:1018B00000000000000000003F3F3030303030308A
:1018C0003030FFFF0E1CF8F81C0EFFFF3F3F0000FA
:1018D000000000003F3FFFFF3870E0C08000FFFFC6
:1018E0003F3F0000000103033F3FFCFE07030303EB
:1018F0000307FEFC0F1F3830303030381F0FFFFF5A
:10190000C3C3C3C3C3E77E3C3F3F000000000000E9
:101910000000FCFE070303030307FEFC0F1F383023
:1019200033371E1C3F33FFFFC3C3C3C3C3E77E3C33
:101930003F3F000003070E1C38303C7EE7C3C3C3A3
:10194000C3C78E0C0C1C3830303030391F0F0303E6
:101950000303FFFF03030303000000003F3F0000F9
:101960000000FFFF000000000000FFFF0F1F3830E5
:10197000303030381F0FFFFF000000000000FFFF75
:1019800003070E1C38381C0E0703FFFF0000000081
:101990000000FFFF0F1F38381F1F38381F0F0F1FA1
:1019A00038F0E0E0F0381F0F3C3E07030101030769
:1019B0003E3C3F7FE0C08080C0E07F3F00000001F0
:1019C0003F3F0100000003030383C3E3733B1F0F8A
:1019D0003C3E373331303030303000000000000002
:1019E0000000000030303030303030303030000017
:1019F000303030303070E0C00C1E3F33333333337F
:101A00003F3FFFFFC0E070303070E0C03F3F3030FC
:101A1000303030381F0FC0E07030303030300000D0
:101A20000F1F3830303030381C0CC0E07030307050
:101A3000E0C0FFFF0F1F3830303030303F3FC0E094
:101A4000703030303070E0C00F1F3B3333333333EE
:101A50000303C0C0FCFEC7C303070E0C00003F3FDA
:101A6000000000000000F0F89C0C0C0C0C0CFCFCBE
:101A7000000133333333333B1F0FFFFFC0E07030BF
:101A80003070E0C03F3F0000000000003F3F00001A
:101A90003030F3F300000000000030303F3F3030C2
:101AA0000000000000003030F3F300000C1C383060
:101AB00030381F0F0000FFFF0080C0E070300000D2
:101AC0003F3F03070F1C3830000000000303FFFFF7
:101AD00000000000000030303F3F30300000F0F0E8
:101AE0003070E0E07070E0C03F3F00000303000092
:101AF0003F3FF0F0C0E070303070E0C03F3F00008A
:101B0000000000003F3FC0E0703030303070E0C077
:101B10000F1F3830303030381F0FF0F03030303099
:101B200030F0E0C03F3F0303030303030100C0E0C4
:101B3000F0303030E0C0F0F0000103030303030392
:101B40003F3FF0F0C0E070303070E0C03F3F000039
:101B5000000000000000C0E0F03030303030000005
:101B6000303133333333333F1E0C3030FFFF3030EE
:101B70000000000000000F1F383030381C0CF0F05F
:101B8000000000000000F0F00F1F383030381C0C4F
:101B90003F3FF0F0000000000000F0F003070E1CD3
:101BA00038381C0E0703F0F0000000000000F0F0D1
:101BB0000F1F38381C1C38381F0F3070E0C0808071
:101BC000C0E0703030381C0F07070F1C3830F0F0C1
:101BD000800000000000F0F0000133333333333B6A
:101BE0001F0F3030303030B0F0F0703030383C3EC5
:101BF00037333130303000000000000000006F004B
:101C00000007000700147F147F14242A7F2A122360
:101C10001308646236495522500005030000001C79
:101C20002241000041221C0014083E081408083E0E
:101C3000080800503000000808080808006060002C
:101C4000002010080402003E49453E0000427F404B
:101C500000625149460041494936001814127F007C
:101C600027454539003E49493200017905030036D0
:101C7000494936000649291E000036360000005644
:101C800036000008142241141414141441221408BC
:101C900000020151090600060909067E0909097EAC
:101CA0007F494949363E414141227F4141221C7FC3
:101CB000494949417F090909013E4149497A7F085B
:101CC00008087F00417F41002040413F017F081408
:101CD00022417F404040407F020C027F7F04081079
:101CE0007F3E4141413E7F090909063E4151215E47
:101CF0007F09192946264949493201017F01013FDF
:101D00004040403F1F2040201F3F4030403F631471
:101D100008146307087008076151494543007F4173
:101D2000410002040810200041417F00040201022A
:101D3000044040404040080408100820545454789F
:101D40007F484444383844444420384444487F3829
:101D500054545418087E0901020C5252523E7F0816
:101D600004047800447D40002040443D007F10285A
:101D7000440000417F40007C041804787C0804047F
:101D80007838444444387C14141408081414187C1B
:101D90007C080404084854545420043F4440203C28
:101DA0004040207C1C2040201C3C4020403C4428DB
:101DB0001028440C5050503C4464544C44000836A5
:101DC000410000007F000000413608000808221C86
:101DD00008081C22080801020408102040804080E6
:101DE0000804201002019CCE003264E2F10032644B
:101DF000645A505A6450463C46649C141E465A53DA
:101E00006572766F2054657374004779726F205342
:101E1000657475700048656C692053657475700051
:101E2000456C65766F6E5C44656C746100562D542C
:101E300061696C00537469636B7920542D43757428
:101E400000542D4375740053696D706C6520342DFA
:101E5000434800471E411E341E2D1E201E151E0A1B
:101E60001EFF1D0000891112239B322446AD5736F8
:101E700065BF74488CC19D5AAFD3BE6CCAE5DB7E8A
:101E8000E9F7F88110080193331A22A5562C47B7B9
:101E9000753E64C99C408DDBBF52AEEDDA64CBFF6A
:101EA000F976E802218B30100299132667AF763459
:101EB00044BD554AADC3BC588ED19F6EEBE7FA7C4A
:101EC000C8F5D983310A2091121803A7772E66B579
:101ED000543C45CBBD42ACD99E508FEFFB66EAFD2A
:101EE000D874C904428D5316619F702004A915321D
:101EF00027BB364CCEC5DF5EEDD7FC6888E1997A0A
:101F0000ABF3BA85520C4397711E60A1142805B338
:101F1000373A26CDDE44CFDFFD56ECE9986089FBE9
:101F2000BB72AA06638F7214409D512225AB3430D8
:101F300006B9174EEFC7FE5CCCD5DD6AA9E3B878C9
:101F40008AF19B87730E6295501C41A3352A24B1F8
:101F5000163807CFFF46EEDDDC54CDEBB962A8F9A9
:101F60009A708B088481951AA793B62CC2A5D33E8C
:101F7000E1B7F04008C919522BDB3A644EED5F76A9
:101F80006DFF7C899400859BB712A6ADD224C3BF98
:101F9000F136E0C1184809D33B5A2AE55E6C4FF789
:101FA0007D7E6C0AA583B4188691972EE3A7F23C38
:101FB000C0B5D14229CB38500AD91B666FEF7E7469
:101FC0004CFD5D8BB502A499961087AFF326E2BD58
:101FD000D034C1C3394A28D11A580BE77F6E6EF549
:101FE0005C7C4D0CC685D71EE597F42880A1913AFC
:101FF000A3B3B2444ACD5B5669DF78600CE91D7229
:102000002FFB3E8DD604C79FF516E4A9902081BB17
:10201000B332A2C55A4C4BD7795E68E11C680DF308
:102020003F7A2E0EE787F61CC495D52AA1A3B038B7
:1020300082B193466BCF7A5448DD59622DEB3C70E8
:102040000EF91F8FF706E69DD414C5ABB122A0B9D7
:10205000923083C77B4E6AD5585C49E33D6A2CF1C8
:102060001E780F008A7411241FBECFEFD0E1DEBFAF
:10207000CDBF11E0A0E0B1E0E4E0FBEE00E00BBF7B
:1020800002C007900D92A032B107D9F71EE0A0E27E
:10209000B1E001C01D92AF3CB107E1F710E2C6E626
:1020A000D0E200E006C022970109FE010BBF0E94AA
:1020B0004B75C436D10780E00807A9F70E945E730C
:1020C0000C9480750C940000E0910C0694E0E99F5C
:1020D000F0011124E80FF11DE653FD4F84918F5F4D
:1020E0000895F8948091D10D9091D20D789408952F
:1020F000E82FF0E0ED54FD4F849108952AE0829F8F
:10210000C00111248F5D9D4F089525E0829FC0017D
:1021100011248F599C4F08950F93022F24FF03C061
:102120000F7E9DE201C094E2411104C024E047EA21
:1021300052E00EC04530A0F49091780594FF0BC09A
:10214000006194E0499FA00111244A5D594F24E0A9
:102150000E94D2640DC02FEF240F4AED52E006C05A
:10216000941730F02BEF240F47E555E10E94F664F9
:102170000F9108950F93CF93DF93C82FD62F022F7F
:10218000411104C024E042EA52E00DC04A3010F090
:1021900086E101C081E18C0F202F6D2F0E945767CF
:1021A00022E04FE952E06D2F8C2F0E94D264DF9124
:1021B000CF910F9108950F931F93CF93DF93D62F55
:1021C000C42F022F16E0180F442339F04C3141F090
:1021D000443E81F440EF52E005C04BE952E002C0BA
:1021E0004CEE52E06D2F812FDF91CF911F910F9117
:1021F0000C94086547FF04C041E20E943F64C1950A
:102200002FEF2C0F44EF52E06D2F812F0E94F664C8
:10221000DF91CF911F910F9108950F931F93CF934B
:10222000DF93D82F162FC42F022F4C3134F04DE6F8
:1022300082E18D0F0E943F64CB51202F4C2F612FE4
:102240008AEF8D0FDF91CF911F910F91B4CFDF9265
:10225000EF92FF920F931F93CF93DF93D82F162FF8
:10226000F42E27FF03C0E2ECF1E002C0EDEBF1E059
:10227000C281D3802370E22E81E0821718F1C4302E
:102280006CF483E0C802A001112442575D4F0F2D6A
:1022900023E0612F8D2F0E94D26418C0CD5F0F2DD7
:1022A0002C2F40E155E1612F8D2F0E94F664C03143
:1022B0000CF4D6502F2D45E2612F82E18D0F0E9444
:1022C0003F6404C082E028130AC004C0E11007C0C4
:1022D000C13029F42F2D4D2D612F8D2F9EDFDF91E1
:1022E000CF911F910F91FF90EF90DF90089587306D
:1022F00038F4E82FF0E0EE0FFF1FEF52F74F24C045
:102300008C3050F18431C0F4482F50E0DA01AA0F2C
:10231000BB1FA65EBE4F2D913C91803148F4FA015F
:10232000EE0FFF1FEE51FA4F80819181281B390B70
:10233000C901880F991F0895843248F4E82FF0E00E
:10234000EE0FFF1FE757F74F8081918108958E327E
:1023500018F484520C949D2380E090E008950E942C
:102360005A738111FCCF1092000E08950F931F93A2
:10237000CF93DF938C01EB010E94F36324E043ECE5
:1023800052E060E082E20E940865B80180E20E94AB
:102390002D65BE0188E20E942D6568E772E080E34A
:1023A000DF91CF911F910F910C942D6520917805AD
:1023B000207679F0E62FF0E0EE0FFF1FE853FA4F9A
:1023C00021813281821B930B0F964F9728F080E07A
:1023D000089548175907DCF381E008950F93262FDD
:1023E00000E044EF52E060E10E94F6640F9108952E
:1023F000CF93DF93D6E1C0E08D2F0E943969CC0FD7
:10240000C82BD150DE30C1F78C2FDF91CF910895CA
:102410000F931F93CF93DF93082FC7E0D2E01AE00A
:10242000499124E0602F812F0E943F64155F183787
:10243000B9F7DF91CF911F910F9108951F93CF931B
:10244000DF93EC01162F0E94F363BE0188E10E9426
:102450002D65111109C044E252E068E38CE10E944D
:10246000436543EC52E002C04CE152E024E060E0FE
:1024700086E10E940865DF91CF911F910C94496815
:1024800061E0DCCF70E0882399F090E0019725E0CF
:10249000289FF001299FF00D1124E60FF71FEE0F82
:1024A000FF1FE453FB4F808191818B509E4F089515
:1024B000FB01E751FC4F8081992787FD9095089596
:1024C0001F93CF93DF93D82F162FC4E0DD2391F015
:1024D000612F8D2FD7DF9C01253F81E0380764F005
:1024E0008BE0820F8D1710F08CE0820FC15029F025
:1024F000D82FECCFC0E001C0CD2F8C2FDF91CF9132
:102500001F910895CF93C62FDBDF6C2FCF91BACFE9
:102510009C0123583F4F2B3F310540F018161906F8
:102520001CF48DE790E0089583E89FEF0895FF92F3
:102530000F931F93CF93DF938A01C62FD0E0882398
:10254000D9F0BEDFF82E8823B9F0C801E1DF2F2DC6
:1025500030E02150310945E0429FF001439FF00DEA
:102560001124EC0FFD1FEE0FFF1FE453FB4F855F9F
:1025700091409183808305C0C801CADFC751DC4FF9
:10258000888386E0DF91CF911F910F91FF900C948B
:10259000EA5DE0915301F0E0EE0FFF1FEA5AFE4FB3
:1025A000808191810895E0915301F0E0EE0FFF1FCB
:1025B000EC5AFE4F918380838FEB809352010895F4
:1025C000809110062AEF829FC0011124880F991F65
:1025D00020914301309144012817390720F490934A
:1025E0004401809343010895E2EAFEE037A13031CF
:1025F00080F420A541E0420F40A7DF01A20FB11DEA
:10260000A20FB11D8D939C93403108F010A63F5F3F
:1026100037A3089590E08C5F9E4FE6CF90E0E4CF23
:102620008093D20190E04097DFCFFC019091170694
:1026300080A191FF74C091A1882311F0946001C022
:102640009B7F91A386A1813059F5C79A37A121A11B
:10265000332321F181A541E0480F41A7DF01A80FF5
:10266000B11DA80FB11D8D919C9195A384A34031FC
:1026700008F011A6315037A397FD02C031E101C027
:1026800038E233A32C7F97FD226021A381A18BBB6D
:10269000C7988FE182A382E086A308952BBB48C030
:1026A00081110CC0C79A81A1836081A38BBB8091EB
:1026B000D00D8D3308F43CC086E02FC0823009F481
:1026C00038C081A18BBBC79ABF9800C0000000C072
:1026D00086B38078BF9A96A1933049F4882329F075
:1026E00083A1815083A3811123C084E016C094305C
:1026F00021F48823E9F083E00EC0953039F483A1FA
:10270000815083A3811114C081E007C0963081F409
:10271000882371F084E183A385E086A309C09091AA
:10272000140696FB992790F9891711F0C79A089516
:10273000C79808951BBA8FE18ABB00C099B38FEF89
:102740008ABBE8ECF1E08781882311F080E202C0C7
:10275000892F807E8483292F207C8081281759F03F
:102760008074880F90783181891711F0315001C041
:102770003F5F3183208382819381891711F08383A6
:102780008183089590910C0690FD02C093E0892703
:10279000E82FF0E0E152F74FE081E7FDE95FE595D2
:1027A000E595E5951E1624F0EE2321F0E19502C093
:1027B00080E801C080E0E83008F0E7E0F0E0E455B0
:1027C000FD4FE491EE2319F099E090935E018E2B7A
:1027D0000895482F833021F0882321F0E82F03C08B
:1027E000E0E001C0E3E0F0E0EE0FFF1FEF5DFE4F21
:1027F00080819181443080F42091290630E002C02C
:10280000359527954A95E2F720FF06C020E038E08D
:10281000A901481B590BCA010895FF920F931F93FA
:10282000CF93DF93F12CC0E0D0E08F2DD2DF092FC2
:1028300010E0C00FD11FF39484E0F812F6CFCE0160
:10284000DF91CF911F910F91FF900895C2DF2091EA
:102850000E0620FF03C09195819591090895E1E24C
:10286000F1E040E0842F806487B900C000C0369A50
:102870003699FECF24B135B1369A3699FECF84B160
:1028800095B1820F931F369A3699FECF24B135B198
:10289000280F391F369A3699FECF84B195B1820F31
:1028A000931F96958795819391934F5F4830D1F60A
:1028B000089578941F920F920FB60F9211248F9360
:1028C000809120018F5F809320018F910F900FBE28
:1028D0000F901F90189578941F920F920FB60F9239
:1028E00011240BB60F922F938F939F93EF93FF9327
:1028F000F89487B78F7B87BF789420918701809168
:10290000890190911706882359F090FF07C08091A4
:10291000CC0E820F8093CC0E87FF02C01B9A01C0A1
:102920001B9891FF2AC08091CC09811126C0E2EA50
:10293000FEE086A1823009F583A1882311F0815041
:102940001BC021A1C79A82A180FD09C02D7F84A14F
:1029500095A196FD2260880F991F95A384A381E01D
:1029600082278BBB81A3C79882A1815082A381114A
:1029700004C083E086A385E083A3F89487B78064CE
:1029800087BF7894FF91EF919F918F912F910F9036
:102990000BBE0F900FBE0F901F90189578941F924A
:1029A0000F920FB60F9211240BB60F922F933F93F5
:1029B0004F935F936F937F938F939F93AF93BF9347
:1029C000EF93FF9381B7845681BF85E891E00E9421
:1029D00004710E94A46980910E0E826080930E0E95
:1029E000E2E0F1E08081815011F0808304C084E650
:1029F000808381E081838281815011F0828304C0D1
:102A00008AE0828381E08383FF91EF91BF91AF9150
:102A10009F918F917F916F915F914F913F912F91F6
:102A20000F900BBE0F900FBE0F901F9018957894CB
:102A30001F920F920FB60F9211240BB60F922F9385
:102A40003F934F935F936F937F938F939F93AF9336
:102A5000BF93EF93FF932091800030918100F89411
:102A600080917D008F7D80937D00789480914F06CA
:102A700090915006A901481B590BCA01969587955C
:102A80003093500620934F069C01215A3F402F3D22
:102A90003E4220F481E0809331012CC0E09131016D
:102AA0002FEF2E0F283030F59C012152334027376D
:102AB0003540F0F424E62093D10121E02E0F20933D
:102AC0003101F0E0EE0FFF1FE05DFE4F9C012C5D39
:102AD000354040911206465F429FC001439F900DD2
:102AE00011246AE070E00E94E8747183608302C080
:102AF00010923101F89480917D00806280937D0076
:102B00007894FF91EF91BF91AF919F918F917F91B9
:102B10006F915F914F913F912F910F900BBE0F904E
:102B20000FBE0F901F90189592EC980F81E0973090
:102B300008F080E00895FC018081882359F08432F8
:102B400018F085520C94C5238150D1DB40E060E041
:102B50000C94CF7208959C0155E0359527955A95B0
:102B6000E1F7280F391FAC01440F452F441F550BC7
:102B7000241B350B892F990F990B8595820F931F75
:102B800008959DE7980F9B3F88F08E57E82FF0E05F
:102B9000EE0FFF1FE254FB4F808186171CF4608309
:102BA000862F0895481714F44083842F089544E62F
:102BB0006CE9E7CF982F8091180284FF03C081E071
:102BC000923009F080E0089549E2840290011124D6
:102BD000359527953595279587FD815C86FB880F70
:102BE000880B80F9A901481B510987FD5395CA013B
:102BF00008954F925F926F927F928F929F92AF92C1
:102C0000BF92CF92DF92EF92FF920F931F93CF93D9
:102C1000DF93782E662E87FD81958A3040F4825F9F
:102C20000E94396917140CF47AC191E020C08A50CF
:102C3000082F10E068018C3008F4D1C0CC0CDD1CEA
:102C4000CC0CDD1C960128513B4F6901F9018281B2
:102C5000882309F45CC1F4E0F61758F4F801E65C47
:102C6000F94F9081917017140CF453C181E08927BA
:102C700056C1F901A080B1803BDA811108C08FEF05
:102C80008A0D35DB7C01F60181819EDF0AC082302E
:102C900051F48FEF8A0D2BDB7C01F601818181508D
:102CA00026DBEC0104C0C0E0D0E0E12CF12CF60101
:102CB000428150E0FA013197EF30F10508F02BC165
:102CC000EA5BFF4F0C943975F7FE52C0F194E19422
:102CD000F1084EC0F7FE50C0F194E194F1084CC0E9
:102CE000F601808121DF882369F08AE09701829FC5
:102CF0007001839FF00C1124FE018E9FE0018F9FD5
:102D0000D00D1124EC1AFD0AFFE1EF0EF11C2FE3A8
:102D1000E216F104B0F0FFC0D1E0D60D4D2F60E017
:102D20008A2D0ED1C82F4D2F60E08B2D09D1F601D1
:102D30009281953061F4CC2309F4EDC0882309F425
:102D4000EAC0F601838181112EC091E03EC0963029
:102D500019F4C111F6CFF2CF982F9C2721C0EC16A1
:102D6000FD0609F0D8C0EDCFEC16FD0651F7D3C033
:102D7000CE15DF0534F3CFC0EC16FD0614F3CBC03F
:102D8000F801EE0FFF1FE05AFE4F91819095991FB9
:102D90009927991F05C0F801E65CF94F9081917061
:102DA0009111CFCF12C089300CF08F5F883F0CF4A7
:102DB00081508C3124F4853E1CF487EF01C089E0FA
:102DC00041E0460D60E0BCD0982FF60182818C3046
:102DD00008F049CFF801E65CF94F908344CFCC0C62
:102DE000DD1CE601C00FD11FC35ADB4F8A818F70F3
:102DF00009F48DC0F4E0F61708F430CF588049800C
:102E000077D9811107C08FEF850D71DA7C01898137
:102E1000DBDE0EC0823041F48FEF850D68DA7C0175
:102E20008981815064DA04C080E090E0E12CF12CCB
:102E30002A812F70822E912CF4013197EE30F1050A
:102E400008F06BC0EB5AFF4F0C943975F7FE36C093
:102E5000F194E194F10832C0F7FE34C0F194E194AA
:102E6000F10830C0EE24E394E60C4E2D60E0852D91
:102E700067D0F82E4E2D60E0842D62D02A812F700D
:102E8000253061F4FF2009F448C0882309F445C0C7
:102E90008A8182958F7059F591E031C0263019F4FE
:102EA000F110F6CFF2CF982F9F251EC0E816F90635
:102EB000A1F5EECFE816F90659F72FC08E159F053C
:102EC0003CF32BC0E816F9061CF327C0F601E05AC4
:102ED000FE4F91819095991F9927991F05C0F80180
:102EE000E65CF94F908191709111D2CF08C0893082
:102EF0000CF08F5F41E0460D60E022D0982F2A81D0
:102F00002F7030E02C3031050CF0ADCE63CF80E077
:102F100006C0892F04C090E058CF90E0F0CFDF9139
:102F2000CF911F910F91FF90EF90DF90CF90BF90C6
:102F3000AF909F908F907F906F905F904F9008958B
:102F4000882359F08C3119F0843E19F408C081E0CF
:102F500008958D3124F4642F4CCE862F089580E09F
:102F6000089540E060E08091F905EADF811113C027
:102F70008091430190914401892B69F41092C20E13
:102F80008091D00D90915706981749F0809357067D
:102F900082EA9EE04ACB81E08093C20EF1CF089591
:102FA0001F93CF93DF9380910B0680FD3BC08091F0
:102FB0000C06817012E0181B52DCE12FF0E0EE0FDE
:102FC000FF1FE853FA4F4181528180910E0680FF26
:102FD00006C0519541955109258D368D02C0278532
:102FE0003089421B530BEA016096812F2FDCAE0122
:102FF000612FDCD9811116C069E672E087E592E0A5
:10300000B5D90E944968ABD92ADCABDFA895812FDE
:103010001DDCAE01612FCAD9811104C00E945A7310
:10302000882391F3DF91CF911F9108950F931F9300
:10303000CF93DF93C091B60480910B0681FD4DC004
:103040008C2F8873883041F0803131F0803221F04C
:10305000C77CC860C093B60401E0CAD9182FD82F26
:10306000DC2761E472E082E392E080D9D0FF03C004
:1030700060E082E0B3D9D1FF03C061E087E1AED95F
:10308000D2FF03C062E08CE2A9D98D2F887369F06A
:1030900013FF02C063E007C014FF02C064E003C076
:1030A00015FF03C065E081E499D9D6FF03C066E04F
:1030B00086E594D9D7FF03C067E08BE68FD90E94DD
:1030C000496801114CD91C1741F00E945A738111B3
:1030D00004C047DFA89500E0C0CFDF91CF911F91DA
:1030E0000F910895CF93DF93C62F209104022223DE
:1030F00039F09093060280930502DF91CF910895F5
:1031000060E09CD9C11103C08091F60501C089E13E
:103110000E940A6867E182E10E94C77220D9D1E06B
:103120000E945A73882319F0DF91CF9118C98091BA
:103130000E0E833019F4A89510920E0ECC2319F0C0
:10314000D093C20E02C01092C20E0BDFE9CF60E036
:10315000C9CF90915301911103C0811106C00CC0D9
:10316000811103C08FEF890F01C080E0809353016C
:103170008EEB8093520108958FE092E0E8CFE091CA
:103180005301E43018F082E092E0E1CF2FEB20937E
:103190005201EF5FE0935301F0E0EE0FFF1FEC5A96
:1031A000FE4F91838083089581110ADA8091430153
:1031B00090914401009709F0019720914201222348
:1031C00061F0209118064AEF249F90011124220FEC
:1031D000331F8217930708F4C90190934401809329
:1031E0004301BFCE1F93CF93DF93C4EDD4E090E0B3
:1031F000888111E0190F882339F040E060E0A0DEFB
:10320000882311F0812F05C0912F2A96143081F761
:1032100080E0DF91CF911F9108959F92AF92BF926E
:10322000CF92DF92EF92FF920F931F93CF93DF9392
:103230008091D10D9091D20D90915406282F291B89
:10324000209345018093540660E089E898E00E944D
:103250005D4980914501882309F4EFC28091D10135
:10326000882319F081508093D10180E00E943E5E56
:103270000E94F3630E94CD68182F482F4F70E42EF0
:103280005AEFE50EC0911902C43021F0C33019F491
:10329000C4E001C0C8E087E08E1508F48AC0812F21
:1032A000807F803209F485C08E2D86950E9464103F
:1032B0009091280690FD03C00FEF080F02C004E0B4
:1032C000081B602F8091AA06FBD8F82E602F1AD910
:1032D0009C01C1110CC0EC0197FF04C0CC27DD2775
:1032E000C81BD90BD595C795D595C795CF5F02302B
:1032F00061F48091180280FF9EC281E0C2E090914B
:103300000E0690FF03C0C19501C080E0DD27C7FD18
:10331000D095E0FE03C0C20FD31F04C0F901EC1B1F
:10332000FD0BEF01209721F09D2F932797FF10C0F1
:1033300081110EC0232B61F040E050E0602F8F2DF3
:10334000F6D8812F0E94956986E10E94BD7271C2F4
:103350009E0124583F4F293F310540F4AE01602FB4
:103360008F2DE5D86C2FC7FF17C015C01C161D0682
:103370001CF44DE750E002C043E85FEF602F8F2D53
:10338000D6D8CE0183589F4F8B3F910508F051C28C
:103390006C2F1C160CF4619567FD6D5F6595659546
:1033A000772767FD7095645C7F4F85E10E94C2724C
:1033B00040C2812F8F7B69F480915806B19935C244
:1033C0008F3F29F08F5F883C11F48FEF1DEB8093C6
:1033D0005806E8E4F1E08091DD089091DE08208154
:1033E0003181281B390B37FF02C0215E3F4FC5E0FA
:1033F00035952795CA95E1F72115310561F02481AE
:103400003581281B390B37FF02C02F5F3F4F3595A1
:103410002795918380839583848380910E0685FD13
:1034200004C08091AB08882311F020E030E03383A2
:103430002283C8ECD1E02D818981821B8F3F09F462
:1034400080E087FD8F5F85958887982F990F920F71
:103450009D83812BA9DE00912406095FE091530131
:10346000F0E0EE0FFF1FEC5AFE4F208131812C5A05
:10347000364409F078C080910609811174C028850E
:10348000222309F445C08E81332727FD3095A901F9
:10349000480F511D87FD5A95CA013AD88E836FEBAC
:1034A000E62E64E0F62E7EEBC72E74E0D72EE9E719
:1034B000AE2EE5E0BE2EF70180818530D1F440E0EC
:1034C00061E0F50180813CDD882399F0F601908070
:1034D0002885822F992787FD9095890D911D97FC4E
:1034E0009A9516D8F6018083981619F082EF0E94FB
:1034F000EA5DF2E0EF0EF11C22E0C20ED11C4FEFAC
:10350000A41AB40A5DECE51654E0F506A1F6188697
:10351000E09183048E2F807E31F1E295E695E7708D
:10352000F0E0E430F10554F4EE0FFF1FE952F74FDD
:10353000208131813C5F60E078E00CC0EE0FFF1F1E
:10354000E454FB4F2081332727FD309523583F4F0C
:103550006AEF70E047E0429FC001439F900D112445
:103560000E94D474062F8091D201081711F0802F89
:1035700057D88091140687FF39C080915F01882356
:10358000A9F180915E01882399F18091530687FD0E
:1035900003C08F5F8093530682E0F4D8982F9F7703
:1035A00089F020915306921718F5109253061111C5
:1035B0001FC0182F1095111F1127111F83E6811BA3
:1035C000182F16C083E0DED8982F9F7789F02091BE
:1035D0005306921768F410925306111109C0182F60
:1035E0001095111F1127111F1C5902C010925E0166
:1035F00081E080935F01CFEBD4E09EEBE92E94E075
:10360000F92E29E7C22E25E0D22E3AE0A32EB12CC6
:103610000881002309F43FC0F6018081811109C0AF
:10362000053068F46FEF600F8091AA060E94821245
:103630002EC040E060E084DC8111F2CF2CC0053068
:1036400039F4F7016081862F992787FD90951FC077
:10365000E02FF0E0EE0FFF1F0A3010F00D3078F48D
:10366000EB53F74F6081718177FF02C0695F7F4F35
:10367000CB01B3E095958795BA95E1F708C0E95677
:10368000F74F80819181B5010E94E874CB010E94BF
:103690008812F70180832296F2E0EF0EF11C2FEFE3
:1036A000C21AD20A44E0CD3CD40709F0B1CF8091D0
:1036B0000502909106020097B1F060E00E941E1290
:1036C0000E945A7390915206992339F0811128C0B3
:1036D000109206021092050223C0882309F181E0AE
:1036E000809352061DC010925206C0915201CC2305
:1036F00031F01092520187E10E94BD721C2F84E1CB
:10370000809347011093C701E0915301F0E0EE0F61
:10371000FF1FEC5AFE4F0190F081E02D812F09959B
:103720000E944968C091650085E891E00E94F070B0
:10373000882311F084E105C08091CE0E882321F00A
:1037400081508093CE0E06C0809163008695817073
:103750008093CD0E8091CD0E80930302882309F4CF
:1037600066C08091140685FD62C0CF7EC09365005F
:103770008091D00D8F71823009F054C080912F015B
:1037800090913001AC01F4E0440F551FFA95E1F738
:1037900097FD0796BC01E3E075956795EA95E1F71B
:1037A0002091F805332727FD30952A5F3F4F629F10
:1037B000C001639F900D729F900D1124840F951F7F
:1037C00020910E0626FD05C0609100017091010157
:1037D00002C060EF70E00E94D47480914601680FCF
:1037E000711D6F5F7F4F759567956093460180915E
:1037F0005106805F80935106811114C08091F705B6
:10380000681780F4623370F06EE281E10E94C77243
:1038100080910E0683FF06C082E390E090934401FE
:10382000809343011092420108C080E0D0CDC06176
:103830009DCF10E0C1CD80E062CDDF91CF911F918F
:103840000F91FF90EF90DF90CF90BF90AF909F903F
:1038500008958F929F92AF92BF92CF92DF92EF9294
:10386000FF920F931F93CF93DF93EC01A62EB12C01
:103870006501CC0CDD1CF601ED52FE4F008111817B
:103880008981882309F459C08D809E808881815068
:103890000E9477117C018981853038F4833050F49F
:1038A000813079F0823091F039C08530A1F08630D6
:1038B00071F134C0F7FE03C0F194E194F108833054
:1038C00029F481E08E149F043CF125C081E0E814C6
:1038D000F90414F120C0888127D9882369F08AE08F
:1038E0009701829F7001839FF00C11249401829FA5
:1038F0004001839F900C1124E818F9083FE1E30E82
:10390000F11C81E09FE3E916F10430F004C081E08E
:10391000E814F90409F080E0E82EF12C8A81811185
:1039200004C0EF2839F081E01FC040E060E008DB10
:103930008111F7CF00E010E016C08A81882341F0A2
:1039400040E060E0FDDA81110BC00FEF1FEF0CC00B
:103950008B81833040F09C81907681E029F403C014
:1039600080E091E002C080E090E0892B9091050119
:10397000F501ED51FE4F91FD27C0813081F480812A
:10398000811105C08B818D7F11F400E010E081E092
:103990008083FF24F3948B818130D1F418C080811F
:1039A000813061F48B819FEF980F923038F400E002
:1039B00010E0823029F0FF24F39404C0F12C02C0FF
:1039C00092E0F92E108204C080830FEF1FEFF12CDC
:1039D0008C8187FD03C0F1100AC062C088818530E8
:1039E000D0F3855292D6882309F45AC0F4CF17FF3A
:1039F00004C08B81833020F453C001151105D1F52B
:103A00008C818076803211F4CE0195D88C818770BC
:103A100089F0813051F48F2D90E001972F81388506
:103A2000820F931F0E94F41205C060E070E08F8146
:103A30000E94C2728C818076803411F4CE017BD8D2
:103A40008C81282F287181F08695869586958370C4
:103A500090E0029724F0283121F48FE003C08DE03C
:103A600001C08EE00E94BD728B818330B8F40FEFED
:103A70001FEF16C0101611069CF40F5F1F4F8B81AD
:103A800090E002974AE0489F9001499F300D112431
:103A9000201731072CF400E010E002C001E010E034
:103AA000F601ED52FE4F11830083DF91CF911F91FC
:103AB0000F91FF90EF90DF90CF90BF90AF909F90CD
:103AC0008F9008951F93CF93DF93C0E8D5E010E067
:103AD000612FCE01BEDE29961F5F1830C9F7DF9136
:103AE000CF911F9108954F925F926F927F928F9224
:103AF0009F92AF92BF92CF92DF92EF92FF920F937D
:103B00001F93CF93DF931092E40880912001C2B7F6
:103B1000909120018913F9CFD0E0D82B80918304B4
:103B20008F7130E1732E781A0E942F141EE517B999
:103B30000E949A1372DB17B9369A3699FECF84B178
:103B400095B10496409100015091010167E0649F96
:103B50009001659F300D1124820F931F23E09695ED
:103B600087952A95E1F79093010180930001809158
:103B70000E0E833019F4A89510920E0E209120019C
:103B800082B7909120012913F9CF90E0922B8C1BE2
:103B90009D0B20910801309109012817390720F465
:103BA000909309018093080180910501882309F40D
:103BB000D9C180914D0690914E06019690934E0684
:103BC00080934D06D72CF7E1FD1508F47BC00D2D31
:103BD00010E0E801CC0FDD1FCC57DB4F8FE08D15D7
:103BE00028F4E801CC0FDD1FC851DB4F8881E82E97
:103BF000E294E694B7E0EB22F98095E09E1550F050
:103C0000EAEFEF1538F4EF2DF0E0EE0FFF1FE2536F
:103C1000FD4FF0808F7109F453C040E060E090D90F
:103C2000C82E8091050105511E4F81FD47C08E2D84
:103C3000857051F4F8018081811106C0CC2021F0FB
:103C40008F2D90E00E94F4128FEF8E0D823058F489
:103C5000F8018081813091F5C11030C0F2E0EF129F
:103C600029C0F39427C085E08E1548F4F8018081BF
:103C7000811124C0CC2011F1898187D51FC0F2E0C9
:103C8000FE15E0F4CC20D1F084E0E81631F095E0A8
:103C9000E91631F066E970E005C06CE271E002C03F
:103CA00068E572E080914D0690914E060E94D474B2
:103CB000892B21F48F2D90E00E94F412F801C0822C
:103CC000D39481CF0DE514E07AE3A72E76E0B72EEA
:103CD000E0E6CE2EE1E0DE2EE12CF12CF801928020
:103CE000892D8F700E947810833009F03DC0F60155
:103CF000C081D181209771F4F801C081C7FD06C051
:103D0000C095FAE0CF02E00111241BC0DD27C7FDFA
:103D1000D09517C0D7FF14C0219699F4F701E25A45
:103D2000FB4FC081C7FD06C0CF5F8AE0C802E0013B
:103D3000112406C0DD27C7FDD095C095D09501C0E0
:103D40002197892D807F69F0892D82958F70893028
:103D50000CF08F5F40E060E0F3D8811102C0CFEF3C
:103D6000DFEFF601D183C083F501C081F8018281C4
:103D70008F708C3091F440E060E08081E1D8811157
:103D80000BC040E060E0F701E25AFB4F8081D8D8D9
:103D9000882319F0C0E001C0C1E0F80182818F7072
:103DA0008D30B1F440E060E08081CAD8882369F0AA
:103DB000C1FD0EC040E060E0F701E25AFB4F808198
:103DC000BFD8882321F0C3E003C0CD7F01C0C2E08B
:103DD000F501C1935F010D5F1F4FF3E0EF0EF11C82
:103DE00082E0C80ED11C94E2E916F10409F076CF06
:103DF000C6E4D6E048E7C42E41E0D42EE12CF12CF5
:103E00006624639452E0552E63E0462E8701095FD5
:103E10001D4F5801EDEEAE1AECEFBE0AF5018081A0
:103E20000E947810833009F056C0F601808091809E
:103E30008114910489F4F801EF5EFC4F808087FCC7
:103E400007C0882D8095FAE08F024001112425C01B
:103E5000992487FC909421C097FE1CC08FEF881A8C
:103E6000980A81149104C9F4F801EE5EFC4F808039
:103E700087FC0AC081E0880D9AE089024001112484
:103E8000E1E08E1A910809C0992487FC90948094EF
:103E9000909403C0F1E08F1A9108F801EC5EFC4F9A
:103EA00080818823A9F089300CF08F5F883F0CF463
:103EB00081508C3124F4853E1CF487EF01C089E0E9
:103EC00040E060E03DD8811103C088248A94982C9A
:103ED000F60191828082F50180818C30A1F440E06E
:103EE00060E0F801EF5EFC4F80812AD8882311F052
:103EF000688209C040E060E0F801EE5EFC4F80811E
:103F00001FD881111882F50180818D30E1F440E0E5
:103F100060E0F801EF5EFC4F808112D8882381F0C9
:103F2000888181FD10C0F801EE5EFC4F40E060E04A
:103F3000808106D8882311F0488205C0588203C0CA
:103F400088818D7F8883F4E0EF0EF11C219682E05A
:103F5000C80ED11C98E1E916F10409F057CFB2DD83
:103F60001092050180910301882309F479C0209102
:103F70004C062F5E822F8F7090E00C970CF0207F04
:103F800020934C06C7E0D2E0F12CE22FE073EE2E36
:103F9000F22FFF70DF2E822F807FC82E2077B22E67
:103FA000F71409F454C08E0103581D4FF8018081A5
:103FB000982F907C9034C1F4E11016C0880F880FC0
:103FC00040E060E0859585950E94A017882361F008
:103FD0008091170680FF05C0FE01E258FD4F8081E9
:103FE00001C081E00E94BD72F8018081982F907C11
:103FF000903851F5880F880F859585958D31A4F0FF
:104000008D51813029F0823031F0B1101DC006C0D1
:10401000D1101AC003C0F0E2CF1216C0FE01E25860
:10402000FD4F8081B2D310C0E1100EC040E060E0CF
:104030000E94A017882341F0FE01E258FD4F8081C5
:10404000805890E00E94F412F3942296A9CF109227
:10405000030180915E01882319F0815080935E01F5
:10406000DF91CF911F910F91FF90EF90DF90CF9054
:10407000BF90AF909F908F907F906F905F904F9088
:1040800008950F931F93CF93DF930E947110209197
:10409000550630915606AC01421B530B4B3051056F
:1040A00020F010925A0601E001C000E090935606FD
:1040B00080935506D8E010E8CD2F40E060E08D2FCA
:1040C0000E94A017002341F08823E1F080915A0656
:1040D000812B80935A0616C0811102C090E001C066
:1040E000912F20915A069227912361F01227109365
:1040F0005A06811102C0CD2FC19586E08C0F833006
:1041000038F004C01695D150B9F602C0C11111C0E3
:1041100060E089E00E94F915811102C0C0E005C08D
:10412000909159069111FACFC9E080935906011177
:10413000C0E08C2FDF91CF911F910F910895AF9226
:10414000BF92CF92DF92EF92FF920F931F93CF9384
:10415000DF938C017B016A01A22EB090C7019B2DD9
:104160009F7D943439F08091AF08882309F4A4C06E
:10417000933479F4B19906C080914701E801C80FE2
:10418000D11D02C0E801219683E10E94BD7285E045
:1041900010C0953419F0923409F091C0B19989C0DA
:1041A00080914701E801C81BD10984E10E94BD72DA
:1041B00084E00E943969811171C0E114F104F9F4BD
:1041C00081E0C816D104D9F480E6B81619F08EE261
:1041D000B81211C01092AF08C1E00115110509F025
:1041E000C0E0D0E08B2D0E9495698EE2B81206C027
:1041F0001092E50803C0C170DD2701C0B12CA3FEF9
:1042000007C03FDF882321F0C82FDD27C7FDD095E9
:1042100040914A0150914B01C41BD50B8091E50898
:10422000813071F44091D001B19905C084E1480218
:10423000A001112403C0552747FD5095C40FD51F79
:10424000CC16DD0644F48B2D0E94956983E10E9413
:10425000BD72E6010AC0CE15DF053CF48B2D0E942D
:10426000956984E10E94BD72E701C017D10749F149
:10427000B19903C08FEF80935806209751F48B2D8E
:104280000E94856917FF02C083E101C084E10E949A
:10429000BD728A2D83700E94EA5D13C0CC27DD2792
:1042A000C01BD10B85E00E94956984E00E9495694E
:1042B00084CFE801219779CF953409F46FCFE801D5
:1042C0007CCFCE01DF91CF911F910F91FF90EF90A6
:1042D000DF90CF90BF90AF900895552747FD509540
:1042E000772767FD7095992787FD909528CF22E065
:1042F000F4CF462F22E060E0F0CF21E0EECF462F52
:1043000021E060E0EACF462F50E022E060E070E07C
:1043100016CF282F30E0883058F02850310949E076
:10432000429FC001439F900D11248B5E9B4F0895C7
:1043300045E0429FC001439F900D112483519C4F43
:104340000895813649F40E94956981E00E94A91878
:1043500089E49EE40E94BF1865EB7FE080E10C9445
:104360002D65CF93C82F80910C0E80FF03C061E3B1
:104370007FE002C06FE17FE088E10E942D65C136D9
:1043800029F410920C0E80E00E94A9188091550922
:10439000815080935509811103C081E00E94BD7254
:1043A000CF910895CF93DF93EB0192E4980F923071
:1043B00030F490916B099150988310926B09909111
:1043C0006809992339F0909169099F7790936B0957
:1043D0001092680990916B09992309F1813841F491
:1043E0001092AF08988310926B090E94956938C0AB
:1043F0008136B1F1813211F08E3899F52091AF08F4
:10440000222319F01092AF082BC09150988310927C
:104410006B090E94956987E10E94BD7221C0988155
:10442000843621F49417D0F4995F18C0853621F4AE
:104430009730A0F0975012C0803611F08E3271F490
:104440009F5F90936B099068909369090E949569AA
:104450001092C7011092880890E080E0988301C014
:1044600080E0DF91CF9108951F93CF93DF93182FB2
:10447000D62FC42F662321F06FE0842F3ADFC82F98
:10448000809118024C2F83FF02C0440FD06250E08D
:104490002D2F612F80E60E942F678C2FDF91CF9107
:1044A0001F910895FF920F931F93CF93DF93182FBF
:1044B000F62E0AE08AE0189FE0011124CF5DDD4F5F
:1044C0002FE130E0211B3109029FA001039F500D15
:1044D0001124BE01CE010A960E944F75FF2049F0BB
:1044E000BE016A5071094AE050E0CE010E944F754A
:1044F0000DC0FE0111920A95E9F780916009888349
:10450000898384E68A838F8188608F831093620910
:10451000DF91CF911F910F91FF900895EF92FF923D
:104520000F931F93CF93DF93E62E142FEC0188E0B7
:10453000F82E00E0FE01659174918F2D0E942D658B
:104540000E1540F4FE013E96459154916F2D85E481
:104550000E9443650F5F229688E0F80E073051F7FE
:1045600047E368E083E40E94E3651123B1F0612F23
:10457000660F660F660F183028F0685320E04BE393
:1045800085E403C020E042E480E0DF91CF911F91F9
:104590000F91FF90EF900C946965DF91CF911F917F
:1045A0000F91FF90EF9008950F93443051F4909144
:1045B00016029F70913029F444E851E10F910C9458
:1045C0000865022F242F42EE54E10E94F6640F91F9
:1045D00008959C01220F331F280F391F9595879549
:1045E00095958795280F391F95958795959587956A
:1045F00095958795820F931F0895429643E7489FAC
:104600009001499F300D1124C901E6E095958795E9
:10461000EA95E1F70895CF92DF92EF92FF920F9320
:104620001F93CF93DF937B018A01D090E40895E03C
:104630009D1508F45FC091E09D0D9093E408EBE0B8
:104640008E9FE0011124C65BDA4F8881882349F0F0
:1046500081500E9477119C01442737FD4095542FCB
:1046600003C020E030E0A901D092E408DE80FD2DF7
:10467000F870CF2ED3FC0AC089819A81AA2797FDB2
:10468000A095BA2F280F391F4A1F5B1FAB81B0E0DE
:1046900011960E94B2742C8130E02F5F3F4F442767
:1046A00037FD4095542F0E941D75CC2051F0898113
:1046B0009A81AA2797FDA095BA2F280F391F4A1F64
:1046C0005B1FD0FE07C050954095309521953F4F18
:1046D0004F4F5F4FE114F10419F08D81F701808392
:1046E0000115110529F08E8186958370F80180836C
:1046F000C90102C080E090E0DF91CF911F910F913E
:10470000FF90EF90DF90CF90089581E00895E82F1B
:10471000F0E0E852FB4EE491862F992787FD9095B3
:1047200083589F4FEE5FE23038F42AE0AC01249FBB
:10473000C001259F900D11240895E82FF0E0E85264
:10474000FB4EE491E03FF1F0ED3F4CF4EE0FFF0B38
:10475000EE52FB4F8081992787FD90950895ED3F9C
:1047600069F084F0EF3F09F06CF480E1E802F001B9
:104770001124EA5FF64F848595850895809146015E
:1047800090E0089580E090E00895CF92DF92EF925C
:10479000FF92CF93DF9300D0CDB7DEB7F82E1A8209
:1047A0001982CBDFEF2DF0E0E852FB4E2491422F2F
:1047B000552747FD5095652F752F415F5F4F4F304F
:1047C000510590F54D595F4FFA010C943975AE01C2
:1047D0004F5F5F4FBE016E5F7F4F8FE0820F1BDF29
:1047E000EA81F0E0EB50FD4EE491EA831DC024E243
:1047F0002A8321E0298318C06CE370E00E94E874EA
:104800006B017C0146E260E0C6010E94CF72C701E5
:1048100025E32A8309C0E22FEE0FFF0BEE52FB4F78
:104820008081992787FD90954A8169810E94CF7286
:104830000F900F90DF91CF91FF90EF90DF90CF908E
:1048400008950F9390E1499FF0011124EA51F74F29
:104850009681923009F090E0292B44855585022FEE
:104860000E9465670F9108958F929F92AF92BF92B9
:10487000CF92DF92EF92FF920F931F93CF93DF932C
:1048800000D0CDB7DEB7F82ED62EC22EB32E102F05
:1048900080E28A83E42FFF27E7FDF095E852FB4E84
:1048A00094908E2D8170882EE0FE22C0AFE0A90D7D
:1048B000A43008F08EC08BE0A89FD0011124FD0128
:1048C000EF5AFA4F8081882309F483C0AF0100E1D9
:1048D00024E08F2D0E94D26412FD04C0A8E1AA2E0C
:1048E000AF0C07C0FCE1AF2EAF0C88EFD80E01C0B3
:1048F000AF2C0E2D0870E3FC1F7B81EF98160CF493
:104900003EC084EF89152CF482E0890D8230F8F0E6
:1049100036C0AE014F5F5F4FBE016E5F7F4F8FE0CD
:10492000890D79DE2981213011F4106203C0223013
:1049300009F41063EA81F0E0E351FD4EE491EA836B
:10494000E7FE02C08C2D9B2DC82EB92E18C012FD7B
:1049500002C08CEFA80E882011F08AE0A80E177014
:10496000012F212F4C2D5B2D6D2D8AEF8A0D0E947A
:104970006567E3E3E90DEA838AEFF80E0AC00023D6
:1049800071F18DE38F0D212F4C2D5B2D6D2D0E942C
:104990002F678E2D867069F0E2FE04C08AE08F0DCD
:1049A0001B7F02C08091CF0D212F4A816D2D0E9467
:1049B0003F648A810F900F90DF91CF911F910F91EB
:1049C000FF90EF90DF90CF90BF90AF909F908F902F
:1049D00008954F5F20E06D2D8F2DE6DD7DCF8A2D70
:1049E000D2CF0F931F93CF93DF93C82FD62F042FCF
:1049F000122F40EC52E10E94086540E3400F212F46
:104A00006D2F8CE08C0FDF91CF911F910F910C9443
:104A10003F64EF920F931F93CF93DF93C42F122F16
:104A20002E2DDE2DD3709DE7940F9B3F78F043E849
:104A30004C0F8251D6DFDD2349F122E042E850E0FD
:104A40006EE770E08C2F90E07ADB0BC0552747FDB6
:104A500050950E942F67DD23C9F0402F612F8C2FC6
:104A600046DCC82F8091C7018D3B81F48DE78C0F08
:104A70008B3F40F0EC2FF0E0EE0FFF1FEE53FC4FAA
:104A8000C08101C0CEE782E00E94EA5D8C2FDF91F9
:104A9000CF911F910F91EF900895CF93DF939EE0F8
:104AA000899FE0011124CF54DC4F40E060E08C8509
:104AB0000E94A017882349F040E060E08D850E94A5
:104AC000A017811104C081E003C080E001C082E032
:104AD000DF91CF910895EF92FF920F931F93CF93A1
:104AE000DF93F82EE62EC42FD42FD695062F0D1B5C
:104AF000182F1D1B602F812F0E94E3656D2F6E0DF7
:104B00004C2F812F0E94E1654C2F602F8D2F8F0D30
:104B10000E94E3654C2F602F812FDF91CF911F9171
:104B20000F91FF90EF900C94E1659091D00181E09E
:104B3000191624F0911101C080E081951092D001E6
:104B4000089521E0AC0160E080E00C9408650F93CB
:104B50001F93CF93DF93182F8AEC9EE0F2DF163677
:104B600028F4143630F4113659F00FC01E3841F0D5
:104B70000CC08091490991E089278093490905C0BB
:104B80001092490980E00E94A91880914909882360
:104B900009F43FC0C6E0D1E0103641F48FEF8883BE
:104BA00019821B821A8287E10E94BD7264E97EE04D
:104BB00088E00E942D654981469550E068E086E6D0
:104BC0000E9455674881469550E060E186E60E9464
:104BD000556749818881481B469550E068E186E623
:104BE0000E9455678A819B8129E1289FA001299F06
:104BF000500D1124569547955695479520E360E250
:104C000086E60E942F6761E87EE088E30E942D65BA
:104C100065C0C6EED8E06AE67EE080E00E942D65C1
:104C200040917D0850917E0800E020E068E08AE233
:104C30000E9465674C815D8120E068E08EE40E94FF
:104C400065674885598520E060E18AE20E946567D2
:104C50004A855B85C4E056954795CA95E1F720E003
:104C600060E18EE40E94656740917B0850917C086A
:104C700020E060E08EE40E9465674EE76CE382E02E
:104C80000E94E16543E26CE185E00E94E365CBE0D0
:104C900043E06BE38C2F0E94E365CA5FC338C1F722
:104CA0001091020880910108893710F4C0E001C01A
:104CB000C12FD6E00CE3EC2FF0E0ED5FF74F408121
:104CC000602F641B8D2F0E94E365CF5FC83708F00B
:104CD000C0E0C11719F0DF5FDE3769F7DF91CF91D0
:104CE0001F910F910895222319F02091A90801C066
:104CF00020E0442319F04CEE52E002C040EF52E0B5
:104D00000C940865CF93DF93C82FD42F242F482FFE
:104D100086E6E9DFDD2339F022E041E060E08C2F18
:104D2000DF91CF91DACA8C2FDF91CF9108951F9335
:104D3000CF93DF93D82FC62F122FBA018C2F0E944A
:104D40002D65412F6C2F8D2FDF91CF911F91DACFE1
:104D5000CF93C1E09C2F981B892FE9DFC81B8C2FB4
:104D6000CF9108950F93222319F00091A90801C053
:104D700000E0242F47E751E10E94F6640F91089567
:104D80000F931F93CF93DF93182FEB01802F612F89
:104D90000E942F67BE01812FDF91CF911F910F914C
:104DA0000C942D656115710541F0481708F4842FA6
:104DB000FB01E80FF11D8491089580E00895AF9202
:104DC000BF92CF92DF92EF92FF920F931F93CF93F8
:104DD000DF93EC01B62E7A01A22E10918808C090C4
:104DE000D908D090DA08A091DB08B091DC08E8E49B
:104DF000F1E0868197818C199D0997FDCF9646E059
:104E0000959587954A95E1F7282F8093AC08808582
:104E100091858A1B9B0B97FDCF9636E095958795DC
:104E20003A95E1F7982F8093AA08222311F0D782B0
:104E3000C682992311F0B187A0878091AB088111B8
:104E400004C080910E0685FF06C01092AC08109237
:104E5000AA081092AB088091AC08811108C080911B
:104E6000AA08811104C082819381892B11F00E94CC
:104E7000E0124A2DB701888195DFD82E0F3F09F443
:104E80004FC08091E50881112EC080915E09882372
:104E900019F010925E091D2D48DE18166CF41D15D0
:104EA00010F41F5FC9F48881801718F48F5F88831E
:104EB00001C0188210E010C0882371F011110BC0DE
:104EC0008881882319F08150888301C0088381E09C
:104ED00080935E0901C011508EE2B8120FC081E0CC
:104EE0008093E5080BC0813049F48EE2B81621F0BA
:104EF0008091AF08811102C01092E5088091870867
:104F0000B1990BC08F3F19F08F5F8D3338F091E06E
:104F10009093AF089093E50801C080E080938708E4
:104F2000C8804A2DB7018C2D3DDFD82E8091AF0867
:104F3000811132C08091AA088823B9F0C81A8C2D3B
:104F4000C7FC80E0202F30E0482F552747FD5095C3
:104F5000421753070CF0802F88834A2DB70122DFB8
:104F6000811708F4182F1092AA0888818823A1F0CD
:104F70009091AC08992381F0191B17FD10E04A2D80
:104F8000B70110DF282F30E0412F552747FD5095FE
:104F9000421753070CF0182F80E6B81609F43EC0EC
:104FA0008B15D0F082E4B81609F47BC08B1540F065
:104FB00081E2B81609F446C08EE2B81679F194C0C1
:104FC00084E4B81609F449C0B81608F478C085E43A
:104FD000B81609F453C088C085E6B81609F450C065
:104FE0008B1558F083E6B81609F46CC08B15C0F128
:104FF00082E6B81609F458C077C08EE8B816F9F002
:105000008FEBB81631F081E8B8126EC01092AF087D
:1050100020C018821092AF0810E066C00F3F09F45C
:1050200063C081E09091AF08911180E08093AF0858
:10503000882309F459C081E08093E50855C08EE8C3
:105040000E9495698091AF08882319F01092AF08EB
:105050004BC080E00E94A91847C01D1509F444C048
:10506000E114F10409F440C08091AF0881113CC003
:105070001D1510F41F5F10C010E00EC01123A1F128
:10508000E114F10489F18091AF0881112DC0112341
:1050900011F0115001C01D2DDD2031F11092C7011A
:1050A00023C08881801701F18091AF0881111CC055
:1050B0008881801710F48F5F0DC018820EC0888120
:1050C000882391F08091AF0881110EC088818823D8
:1050D00019F08150888301C008834A2DB701888167
:1050E00061DE811708F4182F2091AF0821110AC042
:1050F00031E080914A0190914B01892B09F430E015
:10510000832F01C081E08093AE0810938808EF28B8
:1051100011F482E003C02111FCCF81E08093A90843
:105120008DEF92E19093660980936509DF91CF91AD
:105130001F910F91FF90EF90DF90CF90BF90AF90B5
:1051400008950F93042F409165095091660920E05E
:1051500036DE0F9108955F926F927F928F929F92A9
:10516000AF92BF92CF92DF92EF92FF920F931F9375
:10517000CF93DF93C82F82E193E1E3DC0AE027E0DD
:105180004AE051E16C2F89E599E019DEA0905909B8
:1051900060908808CE3211F0C036D9F486E08A15C6
:1051A00060F07EEBC72E74E0D72EC9E7D5E018E09B
:1051B0005C2EE1E38E2E8C1A36C089EF8A0D809327
:1051C00067098C2F0E9495698CEB9AE40E94BF18A6
:1051D00073C0F6E0FA1508F46FC0E3CFA71039C02A
:1051E0006B1037C00091A90801112EC0912CB1108D
:1051F00035C0202F4881612F8EE10E94DB1099205D
:1052000031F02AE04CE164EE888167D88883B3945A
:10521000F3E0BF12E3CF185F82E0C80ED11C2196E5
:10522000103409F48AC060EC72E1812F0E942D6570
:105230007C2E4C2F480D612F8CE00E94D064F6012B
:105240007F01B12C7518CACF8091AF08811103C0BE
:10525000CDCF00E0CBCF99249394C9CFF1E0BF121A
:1052600017C0992031F06CE1F701818142D8F70134
:105270008183F70121812D3018F441EE50E103C004
:105280002D5F47E555E1612F8CE30E94F664BFCFA7
:10529000992039F04DE763E8F701808128D8F701BC
:1052A0008083F7014081552747FD5095202F612FBE
:1052B0008CE60E942F67ABCFE9EFAE0E0AE415E053
:1052C00051E3E52E68E0F62E68ED70E18F2D0E9427
:1052D0002D654E2D6F2D8CE00E94D064E80120E0FA
:1052E00048816F2D88E10E948C1049815A816F2D71
:1052F0008BE40E9455674B8150E04F5F5F4F6F2DED
:1053000080E60E9455674C8150E04F5F5F4F6F2DE4
:105310008EE70E945567F8E0FF0EE394055F1F4F8C
:1053200088E2F812D1CF6A2D660F660F660F685FAC
:1053300020E04EE780E00E946965DF91CF911F91E8
:105340000F91FF90EF90DF90CF90BF90AF909F9024
:105350008F907F906F905F9008951F93CF93DF930E
:10536000C82FD62F142F47E16CE2B5DB43E06BE288
:105370008C2F0E94E36543E06CE28FEF8C0F0E945C
:10538000E165812F69EF0E94C774282F245D8D2F5E
:1053900067E00E94C77445E0622F8C0FDF91CF91C8
:1053A0001F9199CBCF92DF92EF92FF920F931F93B1
:1053B000CF93DF93CFEDD8E0498168818AE2CDDFDA
:1053C0004A816B8186E5C9DFC1EDD8E02896FAE312
:1053D000FF2E0DE510E0A7E3CA2E899199919C5FFD
:1053E000B8010E94E874DD24D394D60EEC2CE61AA2
:1053F0004D2D6E2D8F2D0E94E3654D2D6E2D81E07C
:105400008F0D0E94E3654D2D6E2D82E08F0D0E9461
:10541000E36585E0F80E89E4F812DFCFDF91CF91E4
:105420001F910F91FF90EF90DF90CF900895CF9351
:10543000DF93C82FD42F242F482F86E693DCDD235B
:1054400041F022E041E060E08C2FDF91CF910C949D
:105450006D218C2FDF91CF91089540E651E168E3F3
:105460008AE50C944365CF92DF92EF92FF920F93FF
:105470001F93CF93DF93D82E8DED9BE062DB40919D
:10548000670950E04F5F5F4F60E08EE40E94556710
:10549000C091670989E0C89FE0011124C058DA4F24
:1054A0008C81877011F00AE001C009E04091650924
:1054B0005091660920E06D2D84E499E080DC109124
:1054C000440916301CF464EB7BE002C06FE87BE01B
:1054D00088E00E942D65F090A90816300CF0BEC03F
:1054E000BCDF111107C06EE288810E947921888398
:1054F0002F2D01C020E0488168E080E60E948C10DA
:1055000088818823D1F081500E9477116C016AE86C
:105510007BE088E00E942D654881453248F0455285
:1055200052E0E52E00E0960168E088E49DD905C0D0
:10553000A60168E088E40E945567113039F466E0FE
:1055400089810E94792189830F2D01C000E0298182
:10555000253018F442EB53E103C025504AE75BE0E5
:1055600060E18EE40E94F664123081F484E6809358
:10557000470122E040E05DE760E073E88D819E81B5
:105580000E949F209E838D832F2D01C020E04881A3
:105590008D819E81453248F0455232E8E32E022F3C
:1055A0009C0168E188E760D905C0AC0168E188E743
:1055B0000E942F67133049F42AE04CE164EE8A819F
:1055C0000E946D218A832F2D01C020E04A8160E274
:1055D00080E60E94DB10143039F460E28B810E9477
:1055E00079218B832F2D01C020E04B81433048F47B
:1055F000022F242F44EA53E168E280E60E94F66419
:1056000007C050E04250510968E28CE60E942F67C3
:105610008C818695869586958370153069F463E054
:105620000E947921282F2370220F220F220F9C81A4
:10563000977E922B9C8301C0F12C0F2D282F4CE5D7
:105640005BE060E38EE40E94F664DF91CF911F91EE
:105650000F91FF90EF90DF90CF900895163091F466
:105660008C8182958695877062E083700E94792193
:1056700083708295880F807E9C819F79982B9C8374
:105680000F2D01C000E02C8122952695237048E45F
:105690005BE068E084E50E94F664173069F48C8171
:1056A00087FB882780F961E00E9479219C8180FB3B
:1056B00097F99C830F2D01C000E02C8127FB222746
:1056C00020F94EE35BE060E186E60E94F664CC8060
:1056D000EC2DE770CE2E183059F462E08E2F0E9428
:1056E000792187709C81987F982B9C830F2D01C016
:1056F00000E02C8127704AE25BE068E184E50E94CB
:10570000F6648C81982F97709C1511F018861F8273
:10571000877009F442C06FE17BE080E20E942D6552
:105720008C8187708130F1F4193069F422E044EF04
:1057300051E060E070E08F8198850E949F209887FB
:105740008F832F2D01C020E04F81588560E288E7CC
:105750000E942F67F0E8DF121CC08F8198850E949D
:10576000F41217C08230A9F4193059F44FE060E008
:105770008F810E947721282F30E038872F830F2DCB
:1057800001C000E02F8144E254E160E28AE50E941A
:10579000F6640AE0C02E08E203C0B9E0CB2E00E2B6
:1057A00068E17BE0802F0E942D654C2D50E0E12FB9
:1057B000FF27E7FDF095E417F50781F480E8D8129C
:1057C0000EC089E0FE0111928A95E9F71092AF08A8
:1057D0001A3029F488E08093440901C0F12C2F2D60
:1057E0004EE05BE0602F88E4DF91CF911F910F9135
:1057F000FF90EF90DF90CF900C9408650F931F936C
:10580000CF93DF93D82F162FC42F022F47FF08C046
:1058100041E28AEF8D0F0E943F6486E08C1BC82F07
:105820002C2F40E155E1612F8D2F0E94F664DF910E
:10583000CF911F910F9108950F931F93CF93DF93F3
:10584000162F042FC62FD0E0AE014F5F5F4F202FE1
:10585000682F86E60E942F67002329F06FEFCE01A4
:105860000E948321182F812FDF91CF911F910F91DB
:105870000895CF93482FCAE02AE0829FC0011124E7
:105880008F5D9D4F2FE130E0241B3109C29FA001A5
:10589000C39F500D1124BC01665F7F4F0E944F755E
:1058A000E7E5F3E0DF011D92CA95E9F782E00E9487
:1058B000EA5DCF910C94E85E0F93CF93C42F01FF64
:1058C00005C00E940D1146E365EE04C00E94DB1086
:1058D0004CE164EE00FF05C02AE08C2F0E946D2190
:1058E000C82F8C2FCF910F910895FF920F931F9384
:1058F000CF93DF93182FF62EEA014981453261F4E8
:105900008985829586958770022F282F47E552E179
:10591000812F0E94F66410C020610E948C10898142
:105920008451803148F48F8186FF06C048EB50E1F6
:105930006F2D812F0E944365DF91CF911F910F91B1
:10594000FF9008950F931F93CF93DF93182F062F87
:105950000E947E10EC01111108C001110FC0888156
:10596000823078F1815088832CC0113288F5103252
:1059700019F4002329F02CC0002311F01F5F01C08F
:105980001150812F0E947E10FC0198818FEF890FAA
:105990008031F0F420812131D8F4291302C08BE04A
:1059A00007C0002301F3903160F49F5F988309C022
:1059B000815029F09081288121939993F9CF1093F8
:1059C000610982E0DF91CF911F910F910C94EA5D04
:1059D000DF91CF911F910F910895809157038823F4
:1059E00029F081EA91E20E94BF1881E00895BC018C
:1059F00088E00E942D656EE97FE088E20C942D65B9
:105A0000CF93C82F813689F028F48E3259F0803632
:105A100049F015C08E3849F08F3B89F480E00E9430
:105A2000BD720DC08091850824DF8C2F0E9495697E
:105A300081E00E94A91889E49EE40E94BF1882E9CF
:105A40009FE0CF91D4CF0F93CF93C82F4FE06AE060
:105A500079E0809182080E94445D00E12AE04AE0FA
:105A600059E060E181E00E94D2644FE360E182E4AA
:105A70000E94D06480918308882319F089E59FE013
:105A800002C08CE49FE0B3DFC13669F128F4CE3266
:105A900061F0C03651F033C0CE3829F1CF3B79F5F3
:105AA00080E0CF910F910C94BD7280918308882380
:105AB000A9F08AE39FE00E944012809182080E9430
:105AC000775D882339F087E10E94BD7282E0809380
:105AD000830809C080E00E94BD7205C080918208E1
